:020000040800F2
:1000000010050020A10100083F1A00088F17000802
:100010003D1A0008AD020008992000080000000009
:10002000000000000000000000000000431A00086B
:10003000AF02000800000000411A0008451A00083D
:10004000BB010008BB010008BB010008BB010008A0
:10005000BB010008BB010008BB010008BB01000890
:10006000BB010008BB010008BB010008BB01000880
:10007000BB010008BB010008BB010008BB01000870
:10008000BB010008BB010008BB010008BB01000860
:10009000BB010008BB010008BB010008BB01000850
:1000A000BB010008BB010008BB010008BB01000840
:1000B000F11A0008BB010008BB010008BB010008E1
:1000C000BB010008BB010008BB010008BB01000820
:1000D000BB0100088D200008BB010008BB0100081F
:1000E000BB010008BB010008BB010008BB01000800
:1000F000BB010008BB010008BB010008BB010008F0
:10010000BB010008BB010008BB010008BB010008DF
:10011000BB010008BB010008BB010008BB010008CF
:10012000BB010008BB010008BB010008BB010008BF
:10013000BB010008BB010008BB010008BB010008AF
:10014000BB010008BB010008BB010008BB0100089F
:10015000BB010008BB010008BB010008BB0100088F
:10016000BB010008BB010008BB010008BB0100087F
:10017000BB010008BB010008BB0100080000000033
:10018000BB010008BB010008DFF810D000F07CF8CC
:100190000048004741230008AFF30080100500200D
:1001A0000648804706480047FEE7FEE7FEE7FEE711
:1001B000FEE7FEE7FEE7FEE7FEE7FEE7E11A0008DE
:1001C000890100082DE9F05F0546002092469B4614
:1001D00088460646814640241BE02846414647465D
:1001E000224600F041F853465A46C01A914110D3B6
:1001F00011461846224600F028F82D1A67EB010830
:100200004F4622460120002100F01FF817EB00099D
:100210004E41201EA4F10104DFDC484631462A4647
:100220004346BDE8F09FD2B201E000F8012B491E21
:10023000FBD270470022F6E710B513460A46044683
:100240001946FFF7F0FF204610BD202A04DB203AB4
:1002500000FA02F1002070479140C2F1200320FA19
:1002600003F3194390407047202A04DB203A21FA17
:1002700002F00021704721FA02F3D040C2F12002BF
:100280009140084319467047064C074D06E0E06868
:1002900040F0010394E8070098471034AC42F6D3CD
:1002A000FFF776FFF823000818240008FEE77047E0
:1002B00072B6FEE72DE9F0410446876D00F06EF955
:1002C000064694F835000025022806D08020606597
:1002D00084F834500120BDE8F0812068016821F0E5
:1002E000160101602068416921F080014161206CA4
:1002F00008B9A06C20B12068016821F008010160F4
:100300002068016821F0010101600CE000F046F96D
:10031000801B052807D920206065032084F835005C
:1003200084F83450D7E720680068C007EED194F80D
:100330005C103F208840B860012084F8350084F8C4
:1003400034500020C7E790F83510022903D08021EF
:10035000416501207047052180F83510006801686B
:1003600021F00101016000207047000070B50446D3
:1003700000F014F90546601C02D0044800780444DB
:1003800000F00CF9401BA042FAD370BD2000002001
:100390002DE9F84FDFF8BCA10022012503264FF01C
:1003A0000F090AF1040BAAF1040E00BF0B6805FA4D
:1003B00002F42340A34270D10F7907F00307012F05
:1003C00001D0022F16D187684FEA420806FA08FCCE
:1003D00027EA0C07D1F80CC00CFA08FC4CEA070C11
:1003E000C0F808C04768A7430C79C4F300149440D0
:1003F0003C4344600C79E443A4070AD0C4684FEA44
:10040000420C06FA0CF7BC438F6807FA0CF7274337
:10041000C7600C7904F00304022C12D1D40800EB5D
:10042000840CDCF820405707FF0E09FA07F824EA8D
:100430000804D1F8108008FA07F848EA0408CCF854
:10044000208004684FEA420C06FA0CF7BC430F798F
:1004500007F0030707FA0CF7274307604C6814F40A
:10046000403F70D03C4C276847F4804727602468A1
:1004700022F0030704F480440094384C07EB040C8A
:10048000DCF8084897074FEA177809FA08F7BC43E1
:10049000334FB84202D1002724E054E0314FB84234
:1004A00001D101271EE0304FB84201D1022719E0E7
:1004B0002E4FB84201D1032714E02D4FB84201D18D
:1004C00004270FE02B4FB84201D105270AE02A4F3D
:1004D000B84201D1062705E0284FB84201D10727CD
:1004E00000E0082707FA08F72743CCF80878DAF87D
:1004F00000405746D1F804C09C435FEACC2C00D59D
:100500001C433C60DBF800405F46D1F804C09C43CC
:100510005FEA8C2C00D51C433C60DEF80040774637
:10052000D1F804C09C435FEA8C3C00D51C433C607E
:10053000084F083F3C68D1F804C09C435FEACC3CBC
:1005400000D51C433C60521C102AFFF42FAFBDE8BD
:10055000F88F0000083C0140443802400030014060
:10056000000002400004024000080240000C02406B
:10057000001002400014024000180240001C02401B
:10058000426921EA02030A4043EA0241816170475D
:100590000AB1816170470904FBE7000001488068E7
:1005A0007047000020000020024881680278114452
:1005B00081607047200000200B4810B5016841F4AD
:1005C00000710160016841F480610160016841F4DB
:1005D00080710160032000F09DF8022000F006F811
:1005E00000F050F8002010BD003C024030B5054638
:1005F000204887B00024016841F0010101600068D3
:1006000006A900F00100009001A800F02FF904985D
:10061000B0B100F04BF9400017494FF08042B0FBF9
:10062000F1F11648491E026040F2E732C0E90324A6
:10063000C0E90114846100F0B5FB040003D015E0AB
:1006400000F034F9E8E70D4800F0EEFB04000DD1AE
:100650001C2000F031F8102D07D2002229461C2062
:1006600000F038F80648056000E0012407B0204695
:1006700030BD00004038024040420F00C40000205E
:10068000240000200B4882B0016841F480410160E1
:10069000006800F4804000900648001F016841F0A7
:1006A00080510160006800F080500090052002B089
:1006B00000F030B844380240002809DB00F01F0287
:1006C000012191404009800000F1E020C0F80011B4
:1006D00070470000F0B40E4B1B680C46C3F30223B6
:1006E000C3F10705042D00D90425191D072901D2DE
:1006F000002300E0DB1E012606FA05F1491E214019
:1007000099409E40761E16403143F0BC01F0D6BCA5
:100710000CED00E0064900F0070208684FF6FF0301
:10072000184040EA0220034A104308607047000066
:100730000CED00E00000FA052DE9F0470E4605003B
:1007400065D0DFF81481D8F80000F7B200F0070098
:10075000B04207D288F80070D8F8000000F0070017
:10076000B04254D128683D4C810712D5400703D5CB
:10077000206840F4E05020602878000703D5206806
:1007800040F4604020602068A96820F0F000084331
:1007900020602878C0072DD03049686808390128C2
:1007A00012D0022813D0032811D009688907002924
:1007B0002DDA216821F0030101432160FFF7EEFEED
:1007C000814641F2883A0EE009688903EFE709683B
:1007D0008901ECE7FFF7E2FEA0EB0901514502D9E0
:1007E0000320BDE8F0872068696800F00C00B0EBDA
:1007F000810FEFD1D8F80010404601F00701B14257
:1008000007D90770006800F00700B04201D001204E
:10081000E7E72878400705D52068E96820F4E0502C
:10082000084320602878000706D52068296920F44D
:10083000604040EAC100206000F058F82168084A92
:10084000C1F30311515CC8400649086006480068BE
:10085000FFF7CCFE0020C4E7003C0240083802400D
:10086000E02300082C000020240000200F2202605A
:100870000C4A136803F003034360136803F0F003AA
:100880008360136803F4E053C36012684FF4E053CD
:1008900003EAD20202610448006800F00700086021
:1008A0007047000008380240003C024004480549F7
:1008B00000680968044AC1F38221515CC84070474E
:1008C0002C00002008380240F023000804480549A5
:1008D00000680968044AC1F34231515CC84070475E
:1008E0002C00002008380240F0230008154810B5FD
:1008F000006810F00C02144813D01449042A0FD0D9
:10090000082A0ED10F4C241F2268236802F03F02F0
:100910005B0207D52068C0F38810A0FB010106E048
:10092000084610BD2168C1F38811A1FB0001002316
:10093000FFF748FC2168C1F30141491C4900B0FBA5
:10094000F1F010BD083802400024F40040787D0129
:100950002DE9F84F04006ED02078DFF84C93C007E3
:10096000A9F104054AD009F104000168C1F381012D
:10097000012908D00068C0F3810002280AD1D9F803
:100980000000400206D52868800337D5606800283B
:10099000E1D033E06068B0F5803F10D0B0F5A02F13
:1009A000286810D020F480302860286820F4802047
:1009B00028606068A8B1FFF7F1FD06460DE02868E1
:1009C00040F48030F4E740F480202860F7E700BF6F
:1009D000FFF7E4FD801B642873D828688003F7D5EF
:1009E0000CE0FFF7DBFD064605E000BFFFF7D6FD94
:1009F000801B6428F0D828688003F7D42078DFF8BB
:100A0000AC8280074FF0000A3ED5A748001D016860
:100A100011F00C0F08D00068C0F3810002280BD140
:100A2000D9F80000400207D42868800716D5E0688E
:100A3000012800D112E033E1E068B8B10120C8F824
:100A40000000FFF7ABFD064605E000BFFFF7A6FD7F
:100A5000801B0228C0D828688007F7D5286821693C
:100A600020F0F80040EAC10028600DE0C8F800A0BE
:100A7000FFF794FD064604E0FFF790FD801B022877
:100A80001FD828688007F7D42078000722D5864F22
:100A900087486169703771B101210160FFF77EFD00
:100AA000064604E0FFF77AFD801B022809D8386863
:100AB0008007F7D50EE0C0F800A0FFF76FFD0646EF
:100AC00005E082E0FFF76AFD801B02287DD83868C8
:100AD0008007F7D42078400768D5DFF8CCB100272D
:100AE0000BF13C0BDBF80000C0000BD4DBF800106E
:100AF00041F08051CBF80010DBF80000012700F036
:100B0000805000906B4E3068C00510D4306840F4BF
:100B100080703060FFF742FD009005E0FFF73EFD7A
:100B20000099401A022850D83068C005F6D55E4EAC
:100B3000A0686C3601280FD00528306810D020F04E
:100B400001003060306820F004003060A068B8B167
:100B5000FFF724FD00900FE0306840F00100F4E75B
:100B600040F004003060F7E7FFF718FD0099411AE4
:100B700041F28830814266D830688007F4D50EE0B3
:100B8000FFF70CFD009007E0FFF708FD0099411A00
:100B900041F28830814256D830688007F4D42FB1B2
:100BA000DBF8001021F08051CBF80010A069C8B329
:100BB0003D49091D0968C1F3810102294AD0022873
:100BC000504607D0C8F8600000E03CE0FFF7E6FCC4
:100BD00004463BE04746C8F86000FFF7DFFC0646E6
:100BE00005E000BFFFF7DAFC801B02282BD828683D
:100BF0008001F7D4D4E907010843A16A2E4A4908C5
:100C000002EB0141626A41EA8211084394F82C1018
:100C100040EA0161C9F8001001203866FFF7BEFC08
:100C2000044606E03EE000BFFFF7B8FC001B0228C8
:100C300009D828688001F7D534E000BFFFF7AEFC83
:100C4000001B022802D90320BDE8F88F2868800124
:100C5000F4D427E00128F7D0D9F80000E26900F4C5
:100C6000800191421CD1226A00F03F01914217D1CC
:100C700047F6C071626A0140B1EB821F10D1A26ACF
:100C80004FF0FF3300F4403103EB5202B1EB024F5F
:100C900006D194F82C1000F07060B0EB016F01D019
:100CA0000120D1E70020CFE704380240000047428E
:100CB000800E4742007000400000FFFF7047704701
:100CC00010B590F83C20012A22D0012280F83C2067
:100CD000CA688C6822F4407222434C6822F4806215
:100CE00022430C6822F4006222430C6922F48052F1
:100CF00022434C6922F400522243C969002322F4A2
:100D000080420A4301684A6480F83C30002010BDEC
:100D1000022010BD70B590F83C20012A32D0012489
:100D200080F83C40022280F83D2003685A689D68A4
:100D300022F070060A6832435A60134B02689A42E6
:100D400014D0B2F1804F11D0104B9A420ED0104BFC
:100D50009A420BD00F4B9A4208D00F4B9A4205D0C3
:100D60000E4B9A4202D00E4B9A4204D1496825F0AC
:100D700080031943916080F83D40002180F83C10C9
:100D8000084670BD022070BD000001400004004014
:100D900000080040000C00400004014000400140F9
:100DA0000018004010B5040003D094F83D0010B1C5
:100DB00007E0012010BD002084F83C00204600F030
:100DC0001FF8022084F83D00211D206800F096FEE7
:100DD000012084F8460084F83E0084F83F0084F83F
:100DE000400084F8410084F8420084F8430084F80D
:100DF000440084F8450084F83D00002010BD000048
:100E000008B500680649884208D10648016841F0E3
:100E100002010160006800F00200009008BD0000BF
:100E2000000401404438024090F83D10012901D0EF
:100E300001207047022180F83D100168CA6842F025
:100E40000102CA6000681149884214D0B0F1804F95
:100E500011D00F4988420ED00E4988420BD00E495E
:100E6000884208D00D49884205D00D49884202D0F9
:100E70000C49884204D1816801F00701062903D09A
:100E8000016841F00101016000207047000001404D
:100E90000004004000080040000C00400004014035
:100EA000004001400018004070B5044690F83C0036
:100EB0000025012817D0012684F83C60022084F820
:100EC0003D002068826822F0770222F47F4282602F
:100ED0000868502838D00DDC20284FD005DC90B3AE
:100EE000102811D14AE0022070BD302846D0402899
:100EF0000AD13BE060282FD070280DD0B0F5805F7C
:100F000003D0B0F5005F12D0012584F83D600020C9
:100F100084F83C00284670BDCB68D1E901212068E7
:100F200000F054FE2068816841F0770109E0CB6849
:100F3000D1E90121206800F049FE2068816841F470
:100F400080418160E1E719E0CA684968206800F0E3
:100F500011FF5021206806E0CA684968206800F047
:100F60001AFF6021206800F03BFECEE7CA6849689E
:100F7000206800F0FFFE40212068F4E72268014667
:100F80001046F0E770472DE9F04104460068C66856
:100F900005694FF00007A90713D5B10711D5F91E50
:100FA000016101202077206880698007204602D0F7
:100FB000FFF7E8FF04E000F0E6F8204600F0A6F9AD
:100FC0002777680716D5700714D521686FF00400DD
:100FD0000861022020772068806910F4407F204655
:100FE00002D0FFF7CFFF04E000F0CDF8204600F07C
:100FF0008DF92777280715D5300713D521686FF0AD
:1010000008000861042020772068C0698007204616
:1010100002D0FFF7B7FF04E000F0B5F8204600F07B
:1010200075F92777E80616D5F00614D521686FF014
:1010300010000861082020772068C06910F4407F04
:10104000204602D0FFF79EFF04E000F09CF8204607
:1010500000F05CF92777E80708D0F00706D0216890
:101060006FF001000861204600F051F9280608D50C
:10107000300606D521686FF0800008612046FFF732
:101080001DFE680608D5700606D521686FF0400081
:101090000861204600F042F9A8060AD5B00608D536
:1010A00021686FF0200008612046BDE8F041FFF79D
:1010B00006BEBDE8F081000070B586B0044614217C
:1010C0006846FFF7B7F817492068884228D11648C4
:1010D0000024016841F004010160016801F004018D
:1010E0000591016841F4807101600068022500F4F7
:1010F000807005904FF400700090CDE901540326F4
:10110000CDE9034669460948FFF742F9E02000901F
:10111000CDE90154CDE9034669460548FFF738F9A2
:1011200006B070BD000401403038024000080240A3
:101130000020024070B5044690F83C0000250128CC
:101140000FD0012084F83C006AB1042A0FD0082A8D
:1011500011D00C2A13D00125002084F83C00284629
:1011600070BD022070BD206800F042FDF4E72068E9
:1011700000F06EFDF0E7206800F0A0FDECE72068CD
:1011800000F0D0FDE8E7704710B5040003D094F8F4
:101190003D0010B107E0012010BD002084F83C00A4
:1011A000204600F01EF8022084F83D00211D206832
:1011B00000F0A4FC012084F8460084F83E0084F886
:1011C0003F0084F8400084F8410084F8420084F82D
:1011D000430084F8440084F8450084F83D00002072
:1011E00010BD704770B5044690F83C0000260D46CF
:1011F00001280FD0012084F83C006AB1042A1DD0D8
:10120000082A2FD00C2A3FD00126002084F83C0069
:10121000304670BD022070BD206800F0E9FC2068F7
:10122000816941F0080181612068816921F0040130
:101230008161206881692A69114311E0206800F00A
:1012400007FD2068816941F400618161206881693E
:1012500021F480618161206881692A6941EA022163
:101260008161D2E7206800F029FD2068C16941F062
:101270000801C1612068C16921F00401C1612068D1
:10128000C1692A69114311E0206800F04BFD206814
:10129000C16941F40061C1612068C16921F48061C4
:1012A000C1612068C1692A6941EA0221C161ACE7D4
:1012B00010B5040003D094F83D0010B107E0012000
:1012C00010BD002084F83C00204600F01EF80220EB
:1012D00084F83D00211D206800F010FC012084F8F6
:1012E000460084F83E0084F83F0084F8400084F80B
:1012F000410084F8420084F8430084F8440084F8F4
:10130000450084F83D00002010BD7047704700681C
:10131000B0F1804F01D1FFF747B970477047704770
:1013200000680449884204D101220349034800F0BF
:10133000B5B9704700100140000000207C0000207B
:10134000F8B5016804460868CA684B6910F00F0FC9
:101350004FF0000559D003F0010602F490773743AF
:1013600065D0C10705D0D10503D5616C41F00101FD
:101370006164410705D5D90703D0616C41F00201D2
:101380006164810705D5D90703D0616C41F0040180
:101390006164010707D502F02001314303D0616C7D
:1013A00041F008016164616C00293AD0800604D5DF
:1013B000900602D5204600F02EFD20684069616C41
:1013C000C0F38010090700D460B3204600F0FCFC95
:1013D00020684069400621D52068143050E8001F7D
:1013E00021F0400140E80012002AF5D1E06BA8B1DD
:1013F00072490165E06BFEF7A6FF002811D0E06B93
:10140000016D01B0BDE8F040084783060FD5930693
:101410000DD52046BDE8F84000F0FDBC2046FFF7A2
:101420007FFFF8BD2046FFF77BFF6564F8BD266BA4
:101430002023012E7ED1C6067CD5D6067AD5086833
:101440004868009048694FF0020640064DD5E26BAF
:10145000106840684FF480770004000C3AD0A18DEA
:10146000814237D9E085D069B8422DD020680C3050
:1014700050E8001F21F4807140E80012002AF5D1E5
:101480002068143050E8001F21F0010140E80012EC
:10149000002AF5D12068143050E8001F21F04001E7
:1014A00040E80012002AF5D184F842302563206814
:1014B0000C3050E8001F21F0100140E80012002A13
:1014C000F5D1E06BFEF7F6FE6663A08DE18D401A64
:1014D00081B206E0A18D8142A8D1D069B842A5D1E0
:1014E00066632046FFF71BFFF8BDA08DE18D401A13
:1014F00081B2E08D0028F7D00029F5D020680C30AB
:1015000050E8002F22F4907240E80027002FF5D118
:101510002068143050E8002F22F0010240E8002734
:10152000002FF5D184F84230256320680C3050E854
:10153000002F00E006E022F0100240E80023002B1C
:10154000F3D1CDE705062BD5150629D594F8410032
:101550002128C9D1A068B0F5805F01D12069B0B160
:10156000206A411C2162216800784860E08C401E9E
:101570000004000CE084B7D12068C16821F080012C
:10158000C1602068C16841F04001C160F8BD206AB7
:101590000088C0F308004860206A801C2062E5E7EC
:1015A0004006F3D55006F1D5CA68204622F0400225
:1015B000CA6084F8413000F0E9F8F8BDBB1D0008AE
:1015C00070B5040004D094F84100002510B106E085
:1015D000012070BD84F84050204600F023F82420FC
:1015E00084F841002068C16821F40051C1602046A0
:1015F00000F072FC2068016921F4904101612068CB
:10160000416921F02A0141612068C16841F400511B
:10161000C1606564202084F8410084F8420065635D
:10162000002070BD10B586B0044614216846FEF750
:1016300001FE17492068884228D116480021026817
:1016400042F010020260006800F01000059011489E
:101650001438026842F002020260006800F00200E2
:101660000590C02000900220CDE9010103200390E5
:101670000720049069460848FEF78AFE00220321ED
:101680002520FFF727F82520FFF716F806B010BD34
:1016900000100140443802400004024090F84230FB
:1016A000202B01D00220704721B11AB1002303631F
:1016B00000F098BC0120704710B5006808498842C6
:1016C0000CD1642301220749074800F00FF8BDE858
:1016D0001040012203490448FFF7E0BF10BD00009D
:1016E00000100140000000207C0000202DE9F8439C
:1016F000044690F84100984616460D46202802D030
:101700000220BDE8F88385B17EB10020606421200D
:1017100084F84100FEF742FFA6848146E684A06873
:101720002027B0F5805F02D003E00120E9E72069BF
:1017300010B12E4600250EE000260CE08021204648
:1017400000F06BFCA8B9C6B116F8010B216848601F
:10175000E08C401EE084E08C4B464FF00002CDF858
:1017600000800028EAD14FF04001204600F055FCEF
:1017700040B184F841700320C3E735F8020BC0F391
:101780000800E3E784F841700020BAE77047FEE7FD
:101790002DE9F04F87B014216846FEF74BFD4F4806
:1017A0000024016841F010010160016801F010019E
:1017B0000591016841F480710160016801F4807154
:1017C0000591016841F020010160016801F02001EC
:1017D0000591016841F080010160016801F080011C
:1017E0000591016841F004010160016801F0040104
:1017F0000591016841F001010160016801F00101FA
:101800000591016841F0020101600068DFF8D090A5
:1018100000F002000590012211214846FEF7B8FEB3
:10182000DFF8C0A0012291025046FEF7B1FE00226F
:101830004FF400615046FEF7ABFEDFF8ACB001227A
:1018400002215846FEF7A4FE002204215846FEF766
:101850009FFE0122D70339462448FEF799FE4FF434
:101860008078002241462248FEF792FE00220221A3
:101870004846FEF78DFE132001250226CDE900051E
:10188000CDE9024669464846FEF782FD4FF44060C6
:10189000CDE90005CDE9024669465046FEF778FDE0
:1018A0000620CDE90005CDE9024669465846FEF717
:1018B0006FFD0097CDE9015469460C480394FEF78B
:1018C00067FDCDF800800396CDE9015469460848CC
:1018D000FEF75EFD07B0BDE8F08F00003038024033
:1018E00000100240002002400014024000000240AC
:1018F0000004024010B596B000240F941094119487
:10190000129413941C2168461494FEF793FC202132
:1019100007A8FEF78FFC3A48384901605321C0E917
:10192000011440F2E731C0E903148021C0E9054108
:10193000FFF738FA08B1FEF7BBFC4FF480500F9068
:101940000FA92F48FFF7B0FA08B1FEF7B1FC2C48F9
:10195000FFF71AFC08B1FEF7ABFC2948FFF7A8FC1B
:1019600008B1FEF7A5FC139413A925481494FFF7BA
:10197000D1F908B1FEF79CFC40F2F310CDE900402C
:101980000294039404940594002269461C4806942A
:10199000FFF7D0FB08B1FEF78BFC0422694618481C
:1019A000FFF7C8FB08B1FEF783FC0822694614481C
:1019B000FFF7C0FB08B1FEF77BFC6020CDE9000417
:1019C0000C2269460E48FFF70DFC08B1FEF770FCCB
:1019D0000794089409944FF400500A94CDE90B4001
:1019E00007A907480E94FFF76BF908B1FEF760FCF2
:1019F0000348FFF761FB16B010BD00000004014072
:101A0000340000200C4810B50A4901604FF4E13160
:101A10004160002181600C22C160C0E90412816133
:101A2000C161FFF7CDFD002803D0BDE81040FEF7EF
:101A30003FBC10BD001001407C000020FEE7FEE727
:101A4000704770477047000030B593B0302168464A
:101A5000FEF7F0FB14210CA8FEF7ECFB1E48002556
:101A6000016841F080510160006800F080501190E1
:101A70001A48016841F4804101600068022400F4C2
:101A80008040119001200090000401908001CDE978
:101A90000640192008904FF4A870CDE909040420ED
:101AA0000B906846FEF754FF08B172B6FEE70CA92A
:101AB0000F2081E831004FF4A0500F904FF4805078
:101AC000109005210CA8FEF737FE002801D072B651
:101AD000FEE713B030BD0000403802400070004007
:101AE0000248016841F470010160704788ED00E030
:101AF0000148FFF748BA0000C4000020F0B50268B2
:101B0000274B284D284E294F294C4FF0804C9842A6
:101B100009D0604507D0A84205D0B04203D0B842F2
:101B200001D0A04204D122F0700E4A6842EA0E02AF
:101B300098421BD0604519D0A84217D0B04215D0AA
:101B4000B84213D0A04211D01A4DA8420ED01A4D5F
:101B5000A8420BD0194DA84208D0194DA84205D073
:101B6000184DA84202D0184DA84203D122F4407566
:101B7000CA682A434D6922F080022A438D68C562F3
:101B80000D688562984201D0A04201D109690163C4
:101B9000016841F004010160012141610260F0BD72
:101BA000000001400004004000080040000C00401C
:101BB0000004014000400140004401400048014051
:101BC00000180040001C00400020004010B5846850
:101BD00042EA032224F47F440A432243826010BD78
:101BE000826822F070020A4342F007018160704768
:101BF000F0B5036A026A22F0010202624268846957
:101C0000124E24F073050C682C4323F002058B68F8
:101C10002B430D4DA84201D0B04205D123F0080757
:101C2000CB683B4323F00403A84201D0B04205D166
:101C30004D6922F4407215438A692A4342608461E7
:101C4000496841630362F0BD0000014000040140A7
:101C5000F0B5026A036A23F01003036243688469E3
:101C60000D6824F4E64444EA05248D6822F020023D
:101C700042EA05120F4D104EA84201D0B04206D1E3
:101C8000CF6822F0800242EA071222F04002A84206
:101C900001D0B04207D14D6923F4406343EA850384
:101CA0008D6943EA85034360846149688163026208
:101CB000F0BD00000000014000040140F0B5026AE0
:101CC000036A23F4807303624368C46922F40072D8
:101CD00024F073050C68124E2C438D6842EA0522ED
:101CE0000E4DA84201D0B04206D1CF6822F4006266
:101CF00042EA072222F48062A84201D0B04207D112
:101D00004D6923F4405343EA05138D6943EA0513F3
:101D10004360C4614968C1630262F0BD00000140D4
:101D20000004014030B5046A026A22F48052026263
:101D30004268C3690D6823F4E64343EA05238D68CE
:101D400024F4005444EA0534084DA84202D0084D5A
:101D5000A84204D14D6922F4804242EA85124260D1
:101D6000C36149680164046230BD000000000140A5
:101D70000004014010B5036A046A24F001040462FF
:101D8000846924F0F00444EA021423F00A020A43AE
:101D90008461026210BD10B5036A046A24F0100465
:101DA0000462846923F0A00324F4704444EA0232FC
:101DB00043EA01118261016210BD10B5806B002100
:101DC000C185FFF7ADFA10BD01680C3151E8002F55
:101DD00022F4907241E80023002BF5D10168143100
:101DE00051E8002F22F0010241E80023002BF5D139
:101DF000016B012909D101680C3151E8002F22F053
:101E0000100241E80023002BF5D1202180F8421078
:101E100000210163704708B590F84210222901D0D3
:101E2000022008BD82684FF480539A4201D10169B3
:101E300021B1816A9A421BD04AB10AE00268816AE4
:101E40005268C2F308020A80816A891C08E00269AC
:101E500072B10268526802F07F020A70816A491CFE
:101E60008162C18D491E0904090CC18503D01BE0A4
:101E700002685268F1E70168CA6822F02002CA606D
:101E80000168CA6822F48072CA6001684A6922F057
:101E900001024A61202180F8421000214163026B57
:101EA000012A03D0FFF708FC002008BD0163016888
:101EB0000C3151E8002F22F0100241E80023002BE2
:101EC000F5D101680A68D20602D50A68496800910E
:101ED000818DFFF724FAE7E770B5044600680169D1
:101EE000E26821F44051114301612169A068E2696F
:101EF00008436169114308432168CA6849F20C63C9
:101F00009A430243CA6020684169A26921F4407182
:101F10001143416131492068884202D030498842EA
:101F200002D1FEF7D3FC01E0FEF7C0FCE26900231A
:101F3000192164253226B2F5004F626828D0A0FB33
:101F40000101930F9200FEF73DF90146B0FBF5F059
:101F50006FF01802504301EB800006EB0010B0FB5D
:101F6000F5F000F0F002B1FBF5F002EB0012B1FB6E
:101F7000F5F06FF01803584301EB800006EB0010FA
:101F8000B0FBF5F000F00F0021681044886070BDD0
:101F9000A0FB010192185B41FEF714F90146B0FB6A
:101FA000F5F00201B1FBF5F06FF01803584301EBB7
:101FB000800006EBC000B0FBF5F000F0F80002EB8B
:101FC0004002B1FBF5F0584301EB800006EBC00086
:101FD000B0FBF5F000F00700D6E70000001001406C
:101FE0000014014081628285C28500214164222162
:101FF00080F84210016921B10168CA6842F4807218
:10200000CA6001684A6942F001024A610068C16819
:1020100041F02001C160002070472DE9F843984647
:1020200017460D460446089E24E0701C22D0FEF799
:10203000B5FAA0EB0800B0421AD8CEB12068C1684A
:10204000490717D5802D15D0402D13D00168C943FD
:1020500009070FD401680025406800902046FFF76B
:10206000B3FE0820606484F840500120BDE8F88386
:102070000320FBE72068006835EA000004D0002058
:10208000B842D2D00020F1E70120F9E70148FFF77C
:1020900057B900007C000020FEE700000FB4054B9C
:1020A00010B503A9044A029800F028F810BC5DF8A6
:1020B00014FB000029230008300000200907090E46
:1020C000002804DB00F1E02080F80014704700F0E5
:1020D0000F0000F1E02080F8141D704702E008C8EE
:1020E000121F08C1002AFAD170477047002001E092
:1020F00001C1121F002AFBD1704700002DE9FF4FDC
:102100008BB09A460F460446002606E025280BD0E1
:1021100052460D999047641C761C20780028F5D112
:102120000FB03046BDE8F08F0025A94601227D4959
:1021300000E0054314F8013F203B02FA03F0084297
:10214000F7D120782E2817D114F8010F45F0040597
:102150002A280ED06FF02F022078A0F13001092933
:102160000AD809EB890102EB410100EB0109641C6B
:10217000F2E757F8049B641C20786C280DD004DC2F
:102180004C2812D06A2811D104E074280DD07A2886
:102190000CD10AE045F4001507E0617845F480159C
:1021A000814202D1641C05F58015641C20786928E1
:1021B0003ED006DC0028B3D063280BD0642804D1BD
:1021C00036E0732810D075285CD052460D999047A0
:1021D000761CA5E017F8040B8DF8000000208DF8A0
:1021E0000100E846012003E057F8048B4FF0FF3070
:1021F00069074FF0000501D40AE06D1C4D450DDA6A
:102200008542FADB18F805100029F6D106E06D1CAE
:102210008542FCDB18F805100029F8D12E4404E0B3
:1022200018F8010B52460D9990476D1EF8D277E0D1
:1022300000200A90C5F302504FF00A0B02280CD080
:1022400001CFC117021E71F100020CDA0023D0EB9E
:10225000030063EB01012D2208E0FF1D27F00707B3
:10226000F7E80201EEE72A0504D52B228DF8242099
:10227000012203E0EA070FD02022F7E70DF1200842
:10228000089218E000200A90C5F302504FF00A0BA4
:10229000022803D001CF00210022EFE7FF1D27F025
:1022A0000707F7E80201F7E75A460A9BFDF78AFF9E
:1022B000303208F8012D50EA0102F5D1ADEB0800EB
:1022C00000F1200B680701D44FF00109D94502DD68
:1022D000A9EB0B0000E000208146002506E009A8DC
:1022E0005246405D0D9990476D1C761C08988542BA
:1022F000F5DB04E0302052460D999047761CB9F189
:102300000001A9F10109F5DC05E018F8010B5246BE
:102310000D999047761CBBF10001ABF1010BF4DC89
:10232000641CFAE60928010013B5642301226946FA
:102330000248FFF7DBF900981CBD00007C0000207C
:10234000FEF73AF9FFF780FBFFF722FAFFF7D2FA20
:10235000FFF758FB11A0FFF7A1FE4FF47A752B464B
:10236000152216491648FFF7C1F914490122083908
:102370001348FFF793F9114C124F4FF40046083CF5
:1023800031463846FEF7FCF86168481C60600EA0D4
:10239000FFF784FE2846FDF7E9FFF1E744656C741A
:1023A0006120526F626F7420496E697420436F6DB3
:1023B000706C657465210D0A0000000008000020A3
:1023C0007C000020000002405B5042362F50423714
:1023D0005D20616C69766520256C750D0A00000032
:1023E00000000000000000000102030406070809C5
:1023F000000000000102030418240008000000206F
:1024000034000000DC2000084C24000834000020C8
:10241000DC040000EC2000080000000000000000C8
:1024200044656C746120526F626F7420426F6F74E8
:10243000204F4B0D0A0000000100000010000000BA
:0C244000000000000024F4000000000078
:040000050800018965
:00000001FF
